{
  "contractName": "Channels",
  "abi": [
    {
      "constant": false,
      "inputs": [],
      "name": "unpause",
      "outputs": [],
      "payable": false,
      "stateMutability": "nonpayable",
      "type": "function"
    },
    {
      "constant": true,
      "inputs": [
        {
          "name": "account",
          "type": "address"
        }
      ],
      "name": "isPauser",
      "outputs": [
        {
          "name": "",
          "type": "bool"
        }
      ],
      "payable": false,
      "stateMutability": "view",
      "type": "function"
    },
    {
      "constant": true,
      "inputs": [],
      "name": "paused",
      "outputs": [
        {
          "name": "",
          "type": "bool"
        }
      ],
      "payable": false,
      "stateMutability": "view",
      "type": "function"
    },
    {
      "constant": true,
      "inputs": [],
      "name": "maxDeposit",
      "outputs": [
        {
          "name": "",
          "type": "uint256"
        }
      ],
      "payable": false,
      "stateMutability": "view",
      "type": "function"
    },
    {
      "constant": false,
      "inputs": [],
      "name": "renouncePauser",
      "outputs": [],
      "payable": false,
      "stateMutability": "nonpayable",
      "type": "function"
    },
    {
      "constant": false,
      "inputs": [],
      "name": "renounceOwnership",
      "outputs": [],
      "payable": false,
      "stateMutability": "nonpayable",
      "type": "function"
    },
    {
      "constant": true,
      "inputs": [
        {
          "name": "",
          "type": "bytes32"
        }
      ],
      "name": "channels",
      "outputs": [
        {
          "name": "sender",
          "type": "address"
        },
        {
          "name": "recipient",
          "type": "address"
        },
        {
          "name": "openBlock",
          "type": "uint32"
        },
        {
          "name": "deposit",
          "type": "uint72"
        }
      ],
      "payable": false,
      "stateMutability": "view",
      "type": "function"
    },
    {
      "constant": false,
      "inputs": [
        {
          "name": "account",
          "type": "address"
        }
      ],
      "name": "addPauser",
      "outputs": [],
      "payable": false,
      "stateMutability": "nonpayable",
      "type": "function"
    },
    {
      "constant": false,
      "inputs": [],
      "name": "pause",
      "outputs": [],
      "payable": false,
      "stateMutability": "nonpayable",
      "type": "function"
    },
    {
      "constant": true,
      "inputs": [],
      "name": "owner",
      "outputs": [
        {
          "name": "",
          "type": "address"
        }
      ],
      "payable": false,
      "stateMutability": "view",
      "type": "function"
    },
    {
      "constant": true,
      "inputs": [],
      "name": "isOwner",
      "outputs": [
        {
          "name": "",
          "type": "bool"
        }
      ],
      "payable": false,
      "stateMutability": "view",
      "type": "function"
    },
    {
      "constant": false,
      "inputs": [
        {
          "name": "newOwner",
          "type": "address"
        }
      ],
      "name": "transferOwnership",
      "outputs": [],
      "payable": false,
      "stateMutability": "nonpayable",
      "type": "function"
    },
    {
      "anonymous": false,
      "inputs": [
        {
          "indexed": true,
          "name": "_sender",
          "type": "address"
        },
        {
          "indexed": true,
          "name": "_recipient",
          "type": "address"
        },
        {
          "indexed": false,
          "name": "deposit",
          "type": "uint72"
        }
      ],
      "name": "ChannelCreated",
      "type": "event"
    },
    {
      "anonymous": false,
      "inputs": [
        {
          "indexed": true,
          "name": "_sender",
          "type": "address"
        },
        {
          "indexed": true,
          "name": "_recipient",
          "type": "address"
        },
        {
          "indexed": true,
          "name": "_openBlock",
          "type": "uint32"
        },
        {
          "indexed": false,
          "name": "_newDeposit",
          "type": "uint72"
        }
      ],
      "name": "ChannelDepositIncreased",
      "type": "event"
    },
    {
      "anonymous": false,
      "inputs": [
        {
          "indexed": true,
          "name": "_sender",
          "type": "address"
        },
        {
          "indexed": true,
          "name": "_recipient",
          "type": "address"
        },
        {
          "indexed": true,
          "name": "_openBlock",
          "type": "uint32"
        },
        {
          "indexed": false,
          "name": "_payout",
          "type": "uint72"
        }
      ],
      "name": "ChannelClosed",
      "type": "event"
    },
    {
      "anonymous": false,
      "inputs": [
        {
          "indexed": false,
          "name": "_newMaxDeposit",
          "type": "uint256"
        }
      ],
      "name": "MaxDepositChanged",
      "type": "event"
    },
    {
      "anonymous": false,
      "inputs": [
        {
          "indexed": false,
          "name": "account",
          "type": "address"
        }
      ],
      "name": "Paused",
      "type": "event"
    },
    {
      "anonymous": false,
      "inputs": [
        {
          "indexed": false,
          "name": "account",
          "type": "address"
        }
      ],
      "name": "Unpaused",
      "type": "event"
    },
    {
      "anonymous": false,
      "inputs": [
        {
          "indexed": true,
          "name": "account",
          "type": "address"
        }
      ],
      "name": "PauserAdded",
      "type": "event"
    },
    {
      "anonymous": false,
      "inputs": [
        {
          "indexed": true,
          "name": "account",
          "type": "address"
        }
      ],
      "name": "PauserRemoved",
      "type": "event"
    },
    {
      "anonymous": false,
      "inputs": [
        {
          "indexed": true,
          "name": "previousOwner",
          "type": "address"
        },
        {
          "indexed": true,
          "name": "newOwner",
          "type": "address"
        }
      ],
      "name": "OwnershipTransferred",
      "type": "event"
    },
    {
      "constant": false,
      "inputs": [
        {
          "name": "_recipient",
          "type": "address"
        }
      ],
      "name": "openChannel",
      "outputs": [],
      "payable": true,
      "stateMutability": "payable",
      "type": "function"
    },
    {
      "constant": false,
      "inputs": [
        {
          "name": "_recipient",
          "type": "address"
        },
        {
          "name": "_openBlock",
          "type": "uint32"
        }
      ],
      "name": "increaseDeposit",
      "outputs": [],
      "payable": true,
      "stateMutability": "payable",
      "type": "function"
    },
    {
      "constant": false,
      "inputs": [
        {
          "name": "_sender",
          "type": "address"
        },
        {
          "name": "_openBlock",
          "type": "uint32"
        },
        {
          "name": "_amt",
          "type": "uint72"
        },
        {
          "name": "_sig",
          "type": "bytes"
        }
      ],
      "name": "closeChannel",
      "outputs": [],
      "payable": false,
      "stateMutability": "nonpayable",
      "type": "function"
    },
    {
      "constant": true,
      "inputs": [
        {
          "name": "_sender",
          "type": "address"
        },
        {
          "name": "_recipient",
          "type": "address"
        },
        {
          "name": "_openBlock",
          "type": "uint32"
        },
        {
          "name": "_amt",
          "type": "uint72"
        },
        {
          "name": "_sig",
          "type": "bytes"
        }
      ],
      "name": "verifySignature",
      "outputs": [
        {
          "name": "",
          "type": "bool"
        }
      ],
      "payable": false,
      "stateMutability": "view",
      "type": "function"
    },
    {
      "constant": true,
      "inputs": [
        {
          "name": "_sender",
          "type": "address"
        },
        {
          "name": "_recipient",
          "type": "address"
        },
        {
          "name": "_openBlock",
          "type": "uint32"
        }
      ],
      "name": "getKey",
      "outputs": [
        {
          "name": "",
          "type": "bytes32"
        }
      ],
      "payable": false,
      "stateMutability": "pure",
      "type": "function"
    },
    {
      "constant": true,
      "inputs": [
        {
          "name": "_sender",
          "type": "address"
        },
        {
          "name": "_recipient",
          "type": "address"
        },
        {
          "name": "_openBlock",
          "type": "uint32"
        }
      ],
      "name": "getChannelDeposit",
      "outputs": [
        {
          "name": "",
          "type": "uint72"
        }
      ],
      "payable": false,
      "stateMutability": "view",
      "type": "function"
    },
    {
      "constant": false,
      "inputs": [
        {
          "name": "_newMaxDeposit",
          "type": "uint256"
        }
      ],
      "name": "changeMaxDeposit",
      "outputs": [],
      "payable": false,
      "stateMutability": "nonpayable",
      "type": "function"
    }
  ],
  "bytecode": "0x608060405268015af1d78b58c40000600355336000806101000a81548173ffffffffffffffffffffffffffffffffffffffff021916908373ffffffffffffffffffffffffffffffffffffffff1602179055506000809054906101000a900473ffffffffffffffffffffffffffffffffffffffff1673ffffffffffffffffffffffffffffffffffffffff16600073ffffffffffffffffffffffffffffffffffffffff167f8be0079c531659141344cd1fd0a4f28419497f9722a3daafe3b4186f6b6457e060405160405180910390a3620000e73362000108640100000000026401000000009004565b6000600260006101000a81548160ff021916908315150217905550620002ca565b6200012c816001620001726401000000000262002645179091906401000000009004565b8073ffffffffffffffffffffffffffffffffffffffff167f6719d08c1888103bea251a4ed56406bd0c3e69723c8a1686e017e7bbe159b6f860405160405180910390a250565b600073ffffffffffffffffffffffffffffffffffffffff168173ffffffffffffffffffffffffffffffffffffffff1614151515620001af57600080fd5b620001ca828262000235640100000000026401000000009004565b151515620001d757600080fd5b60018260000160008373ffffffffffffffffffffffffffffffffffffffff1673ffffffffffffffffffffffffffffffffffffffff16815260200190815260200160002060006101000a81548160ff0219169083151502179055505050565b60008073ffffffffffffffffffffffffffffffffffffffff168273ffffffffffffffffffffffffffffffffffffffff16141515156200027357600080fd5b8260000160008373ffffffffffffffffffffffffffffffffffffffff1673ffffffffffffffffffffffffffffffffffffffff16815260200190815260200160002060009054906101000a900460ff16905092915050565b61278780620002da6000396000f300608060405260043610610107576000357c0100000000000000000000000000000000000000000000000000000000900463ffffffff16806316ce103d1461010c5780632abb5e9d146101c45780633f4ba83a146101fa57806346fbf68e1461021157806353fefd7d1461026c5780635c975abb146102995780636083e59a146102c85780636ef8d66d146102f3578063715018a61461030a5780637a7ebd7b14610321578063803c8383146103f557806382dc1ec4146104845780638456cb59146104c75780638da5cb5b146104de5780638f32d59b14610535578063aca8b42814610564578063e745c75714610601578063ec36c4e314610647578063f2fde38b146106c7575b600080fd5b34801561011857600080fd5b506101aa600480360381019080803573ffffffffffffffffffffffffffffffffffffffff169060200190929190803573ffffffffffffffffffffffffffffffffffffffff169060200190929190803563ffffffff169060200190929190803568ffffffffffffffffff16906020019092919080359060200190820180359060200191909192939192939050505061070a565b604051808215151515815260200191505060405180910390f35b6101f8600480360381019080803573ffffffffffffffffffffffffffffffffffffffff169060200190929190505050610904565b005b34801561020657600080fd5b5061020f610eea565b005b34801561021d57600080fd5b50610252600480360381019080803573ffffffffffffffffffffffffffffffffffffffff169060200190929190505050610f99565b604051808215151515815260200191505060405180910390f35b34801561027857600080fd5b5061029760048036038101908080359060200190929190505050610fb6565b005b3480156102a557600080fd5b506102ae611170565b604051808215151515815260200191505060405180910390f35b3480156102d457600080fd5b506102dd611187565b6040518082815260200191505060405180910390f35b3480156102ff57600080fd5b5061030861118d565b005b34801561031657600080fd5b5061031f611198565b005b34801561032d57600080fd5b50610350600480360381019080803560001916906020019092919050505061126a565b604051808573ffffffffffffffffffffffffffffffffffffffff1673ffffffffffffffffffffffffffffffffffffffff1681526020018473ffffffffffffffffffffffffffffffffffffffff1673ffffffffffffffffffffffffffffffffffffffff1681526020018363ffffffff1663ffffffff1681526020018268ffffffffffffffffff1668ffffffffffffffffff16815260200194505050505060405180910390f35b34801561040157600080fd5b50610466600480360381019080803573ffffffffffffffffffffffffffffffffffffffff169060200190929190803573ffffffffffffffffffffffffffffffffffffffff169060200190929190803563ffffffff1690602001909291905050506112ff565b60405180826000191660001916815260200191505060405180910390f35b34801561049057600080fd5b506104c5600480360381019080803573ffffffffffffffffffffffffffffffffffffffff16906020019092919050505061143d565b005b3480156104d357600080fd5b506104dc61145d565b005b3480156104ea57600080fd5b506104f361150d565b604051808273ffffffffffffffffffffffffffffffffffffffff1673ffffffffffffffffffffffffffffffffffffffff16815260200191505060405180910390f35b34801561054157600080fd5b5061054a611536565b604051808215151515815260200191505060405180910390f35b34801561057057600080fd5b506105d5600480360381019080803573ffffffffffffffffffffffffffffffffffffffff169060200190929190803573ffffffffffffffffffffffffffffffffffffffff169060200190929190803563ffffffff16906020019092919050505061158d565b604051808268ffffffffffffffffff1668ffffffffffffffffff16815260200191505060405180910390f35b610645600480360381019080803573ffffffffffffffffffffffffffffffffffffffff169060200190929190803563ffffffff1690602001909291905050506115db565b005b34801561065357600080fd5b506106c5600480360381019080803573ffffffffffffffffffffffffffffffffffffffff169060200190929190803563ffffffff169060200190929190803568ffffffffffffffffff1690602001909291908035906020019082018035906020019190919293919293905050506119ce565b005b3480156106d357600080fd5b50610708600480360381019080803573ffffffffffffffffffffffffffffffffffffffff169060200190929190505050611e75565b005b600080600061071a8989896112ff565b91506107e682876040516020018083600019166000191681526020018268ffffffffffffffffff1668ffffffffffffffffff1677010000000000000000000000000000000000000000000000028152600901925050506040516020818303038152906040526040518082805190602001908083835b6020831015156107b4578051825260208201915060208101905060208303925061078f565b6001836020036101000a0380198251168184511680821785525050505050509050019150506040518091039020611e94565b905060046000836000191660001916815260200190815260200160002060000160009054906101000a900473ffffffffffffffffffffffffffffffffffffffff1673ffffffffffffffffffffffffffffffffffffffff166108798287878080601f016020809104026020016040519081016040528093929190818152602001838380828437820191505050505050611fb7565b73ffffffffffffffffffffffffffffffffffffffff161480156108e557508568ffffffffffffffffff1660046000846000191660001916815260200190815260200160002060020160009054906101000a900468ffffffffffffffffff1668ffffffffffffffffff1610155b156108f357600192506108f8565b600092505b50509695505050505050565b60008060006109116126f5565b600260009054906101000a900460ff1615151561092d57600080fd5b6000341115156109cb576040517f08c379a00000000000000000000000000000000000000000000000000000000081526004018080602001828103825260228152602001807f4465706f736974206d7573742062652067726561746572207468616e207a657281526020017f6f2e00000000000000000000000000000000000000000000000000000000000081525060400191505060405180910390fd5b6003543411151515610a6b576040517f08c379a000000000000000000000000000000000000000000000000000000000815260040180806020018281038252602a8152602001807f4465706f7369742063616e6e6f742062652067726561746572207468616e206d81526020017f61784465706f7369742e0000000000000000000000000000000000000000000081525060400191505060405180910390fd5b600073ffffffffffffffffffffffffffffffffffffffff168573ffffffffffffffffffffffffffffffffffffffff1614151515610b10576040517f08c379a000000000000000000000000000000000000000000000000000000000815260040180806020018281038252601f8152602001807f526563697069656e742063616e6e6f7420626520307820616464726573732e0081525060200191505060405180910390fd5b3373ffffffffffffffffffffffffffffffffffffffff168573ffffffffffffffffffffffffffffffffffffffff1614151515610bb4576040517f08c379a000000000000000000000000000000000000000000000000000000000815260040180806020018281038252601b8152602001807f526563697069656e742063616e6e6f742062652073656e6465722e000000000081525060200191505060405180910390fd5b349350348468ffffffffffffffffff16141515610bcd57fe5b439250610bdb3386856112ff565b9150600060046000846000191660001916815260200190815260200160002060020160009054906101000a900468ffffffffffffffffff1668ffffffffffffffffff16141515610cb9576040517f08c379a00000000000000000000000000000000000000000000000000000000081526004018080602001828103825260248152602001807f43616e6e6f74206f766572777269746520616e206578697374696e672063686181526020017f6e6e656c0000000000000000000000000000000000000000000000000000000081525060400191505060405180910390fd5b33816000019073ffffffffffffffffffffffffffffffffffffffff16908173ffffffffffffffffffffffffffffffffffffffff168152505084816020019073ffffffffffffffffffffffffffffffffffffffff16908173ffffffffffffffffffffffffffffffffffffffff168152505082816040019063ffffffff16908163ffffffff168152505083816060019068ffffffffffffffffff16908168ffffffffffffffffff16815250508060046000846000191660001916815260200190815260200160002060008201518160000160006101000a81548173ffffffffffffffffffffffffffffffffffffffff021916908373ffffffffffffffffffffffffffffffffffffffff16021790555060208201518160010160006101000a81548173ffffffffffffffffffffffffffffffffffffffff021916908373ffffffffffffffffffffffffffffffffffffffff16021790555060408201518160010160146101000a81548163ffffffff021916908363ffffffff16021790555060608201518160020160006101000a81548168ffffffffffffffffff021916908368ffffffffffffffffff1602179055509050508473ffffffffffffffffffffffffffffffffffffffff163373ffffffffffffffffffffffffffffffffffffffff167f8a8559a2e1cdd0ea30426b9cebfe2ac9873be2c3b4fb9f561a5b2c59a075bccf86604051808268ffffffffffffffffff1668ffffffffffffffffff16815260200191505060405180910390a35050505050565b610ef333610f99565b1515610efe57600080fd5b600260009054906101000a900460ff161515610f1957600080fd5b6000600260006101000a81548160ff0219169083151502179055507f5db9ee0a495bf2e6ff9c91a7834c1ba4fdd244a5e8aa4e537bd38aeae4b073aa33604051808273ffffffffffffffffffffffffffffffffffffffff1673ffffffffffffffffffffffffffffffffffffffff16815260200191505060405180910390a1565b6000610faf82600161219c90919063ffffffff16565b9050919050565b610fbe611536565b1515610fc957600080fd5b600081111515611041576040517f08c379a000000000000000000000000000000000000000000000000000000000815260040180806020018281038252601f8152602001807f43616e6e6f7420736574206d6178206465706f73697420746f207a65726f2e0081525060200191505060405180910390fd5b7fffffffffffffffffffffffffffffffffffffffffffffffffffffffffffffffff68ffffffffffffffffff168110151561112f576040517f08c379a000000000000000000000000000000000000000000000000000000000815260040180806020018281038252604e8152602001807f4d6178206465706f736974206d757374206265206c657373207468616e20746881526020017f65206d61782073746f726167652076616c756520666f7220746865206465706f81526020017f736974206461746120747970652e00000000000000000000000000000000000081525060600191505060405180910390fd5b806003819055507f99bada54b2a917867d043b855b7725d9ecfca8069e0f793345b940f1b4f9890e816040518082815260200191505060405180910390a150565b6000600260009054906101000a900460ff16905090565b60035481565b61119633612230565b565b6111a0611536565b15156111ab57600080fd5b600073ffffffffffffffffffffffffffffffffffffffff166000809054906101000a900473ffffffffffffffffffffffffffffffffffffffff1673ffffffffffffffffffffffffffffffffffffffff167f8be0079c531659141344cd1fd0a4f28419497f9722a3daafe3b4186f6b6457e060405160405180910390a360008060006101000a81548173ffffffffffffffffffffffffffffffffffffffff021916908373ffffffffffffffffffffffffffffffffffffffff160217905550565b60046020528060005260406000206000915090508060000160009054906101000a900473ffffffffffffffffffffffffffffffffffffffff16908060010160009054906101000a900473ffffffffffffffffffffffffffffffffffffffff16908060010160149054906101000a900463ffffffff16908060020160009054906101000a900468ffffffffffffffffff16905084565b6000838383604051602001808473ffffffffffffffffffffffffffffffffffffffff1673ffffffffffffffffffffffffffffffffffffffff166c010000000000000000000000000281526014018373ffffffffffffffffffffffffffffffffffffffff1673ffffffffffffffffffffffffffffffffffffffff166c010000000000000000000000000281526014018263ffffffff1663ffffffff167c010000000000000000000000000000000000000000000000000000000002815260040193505050506040516020818303038152906040526040518082805190602001908083835b60208310151561140757805182526020820191506020810190506020830392506113e2565b6001836020036101000a038019825116818451168082178552505050505050905001915050604051809103902090509392505050565b61144633610f99565b151561145157600080fd5b61145a8161228a565b50565b61146633610f99565b151561147157600080fd5b600260009054906101000a900460ff1615151561148d57600080fd5b6001600260006101000a81548160ff0219169083151502179055507f62e78cea01bee320cd4e420270b5ea74000d11b0c9f74754ebdbfc544b05a25833604051808273ffffffffffffffffffffffffffffffffffffffff1673ffffffffffffffffffffffffffffffffffffffff16815260200191505060405180910390a1565b60008060009054906101000a900473ffffffffffffffffffffffffffffffffffffffff16905090565b60008060009054906101000a900473ffffffffffffffffffffffffffffffffffffffff1673ffffffffffffffffffffffffffffffffffffffff163373ffffffffffffffffffffffffffffffffffffffff1614905090565b60008061159b8585856112ff565b905060046000826000191660001916815260200190815260200160002060020160009054906101000a900468ffffffffffffffffff169150509392505050565b600080600080600260009054906101000a900460ff161515156115fd57600080fd5b60003411151561169b576040517f08c379a00000000000000000000000000000000000000000000000000000000081526004018080602001828103825260298152602001807f4d7573742070726f76696465207061796d656e7420746f20696e63726561736581526020017f206465706f7369742e000000000000000000000000000000000000000000000081525060400191505060405180910390fd5b349350348468ffffffffffffffffff16141515611746576040517f08c379a000000000000000000000000000000000000000000000000000000000815260040180806020018281038252602b8152602001807f4d6573736167652076616c7565206d7573742066697420696e2075696e74373281526020017f206461746120747970652e00000000000000000000000000000000000000000081525060400191505060405180910390fd5b6117513387876112ff565b925060046000846000191660001916815260200190815260200160002060020160009054906101000a900468ffffffffffffffffff16915060008268ffffffffffffffffff16111515611832576040517f08c379a000000000000000000000000000000000000000000000000000000000815260040180806020018281038252603f8152602001807f43616e6e6f7420696e637265617365206465706f736974206f6e20612063686181526020017f6e6e656c207468617420686173206e6f74206265656e20637265617465642e0081525060400191505060405180910390fd5b611850848368ffffffffffffffffff166122e490919063ffffffff16565b90506003548168ffffffffffffffffff16111515156118fd576040517f08c379a00000000000000000000000000000000000000000000000000000000081526004018080602001828103825260278152602001807f546f74616c206465706f7369742063616e6e6f7420657863656465206d61784481526020017f65706f7369742e0000000000000000000000000000000000000000000000000081525060400191505060405180910390fd5b8060046000856000191660001916815260200190815260200160002060020160006101000a81548168ffffffffffffffffff021916908368ffffffffffffffffff1602179055508463ffffffff168673ffffffffffffffffffffffffffffffffffffffff163373ffffffffffffffffffffffffffffffffffffffff167f395a6622084f30b3f3092ff0409a748b705f92b97d108bc4dbea9bde01a81b4a84604051808268ffffffffffffffffff1668ffffffffffffffffff16815260200191505060405180910390a4505050505050565b600080600080600260009054906101000a900460ff161515156119f057600080fd5b6119fb89338a6112ff565b935060046000856000191660001916815260200190815260200160002060010160009054906101000a900473ffffffffffffffffffffffffffffffffffffffff1692508273ffffffffffffffffffffffffffffffffffffffff163373ffffffffffffffffffffffffffffffffffffffff16141515611b07576040517f08c379a00000000000000000000000000000000000000000000000000000000081526004018080602001828103825260288152602001807f4368616e6e656c2063616e206f6e6c7920626520636c6f73656420627920726581526020017f63697069656e742e00000000000000000000000000000000000000000000000081525060400191505060405180910390fd5b60046000856000191660001916815260200190815260200160002060020160009054906101000a900468ffffffffffffffffff1668ffffffffffffffffff1691508668ffffffffffffffffff168210151515611bcb576040517f08c379a000000000000000000000000000000000000000000000000000000000815260040180806020018281038252601d8152602001807f5f616d742065786365656473206368616e6e656c206465706f7369742e00000081525060200191505060405180910390fd5b611c08848888888080601f01602080910402602001604051908101604052809392919081815260200183838082843782019150505050505061231b565b1515611c7c576040517f08c379a00000000000000000000000000000000000000000000000000000000081526004018080602001828103825260128152602001807f496e76616c6964207369676e61747572652e000000000000000000000000000081525060200191505060405180910390fd5b600460008560001916600019168152602001908152602001600020600080820160006101000a81549073ffffffffffffffffffffffffffffffffffffffff02191690556001820160006101000a81549073ffffffffffffffffffffffffffffffffffffffff02191690556001820160146101000a81549063ffffffff02191690556002820160006101000a81549068ffffffffffffffffff021916905550508273ffffffffffffffffffffffffffffffffffffffff166108fc8868ffffffffffffffffff169081150290604051600060405180830381858888f19350505050158015611d6c573d6000803e3d6000fd5b508668ffffffffffffffffff16821115611de857611d9e8768ffffffffffffffffff168361247b90919063ffffffff16565b90508873ffffffffffffffffffffffffffffffffffffffff166108fc829081150290604051600060405180830381858888f19350505050158015611de6573d6000803e3d6000fd5b505b8763ffffffff163373ffffffffffffffffffffffffffffffffffffffff168a73ffffffffffffffffffffffffffffffffffffffff167f554be0265205db273197a3595d28c131741b07e14150ac13e59dff00194f421b8a604051808268ffffffffffffffffff1668ffffffffffffffffff16815260200191505060405180910390a4505050505050505050565b611e7d611536565b1515611e8857600080fd5b611e918161249c565b50565b600060606040805190810160405280601c81526020017f19457468657265756d205369676e6564204d6573736167653a0a333200000000815250905080836040516020018083805190602001908083835b602083101515611f0a5780518252602082019150602081019050602083039250611ee5565b6001836020036101000a0380198251168184511680821785525050505050509050018260001916600019168152602001925050506040516020818303038152906040526040518082805190602001908083835b602083101515611f825780518252602082019150602081019050602083039250611f5d565b6001836020036101000a0380198251168184511680821785525050505050509050019150506040518091039020915050919050565b60008060008060418551141515612036576040517f08c379a00000000000000000000000000000000000000000000000000000000081526004018080602001828103825260198152602001807f496e76616c6964207369676e6174757265206c656e6774682e0000000000000081525060200191505060405180910390fd5b6020850151925060408501519150606085015160001a9050601b8160ff16101561206157601b810190505b601b8160ff1614806120765750601c8160ff16145b1515612110576040517f08c379a00000000000000000000000000000000000000000000000000000000081526004018080602001828103825260238152602001807f496e76616c6964207369676e6174757265207265636f7665727920627974652c81526020017f20762e000000000000000000000000000000000000000000000000000000000081525060400191505060405180910390fd5b600186828585604051600081526020016040526040518085600019166000191681526020018460ff1660ff1681526020018360001916600019168152602001826000191660001916815260200194505050505060206040516020810390808403906000865af1158015612187573d6000803e3d6000fd5b50505060206040510351935050505092915050565b60008073ffffffffffffffffffffffffffffffffffffffff168273ffffffffffffffffffffffffffffffffffffffff16141515156121d957600080fd5b8260000160008373ffffffffffffffffffffffffffffffffffffffff1673ffffffffffffffffffffffffffffffffffffffff16815260200190815260200160002060009054906101000a900460ff16905092915050565b61224481600161259690919063ffffffff16565b8073ffffffffffffffffffffffffffffffffffffffff167fcd265ebaf09df2871cc7bd4133404a235ba12eff2041bb89d9c714a2621c7c7e60405160405180910390a250565b61229e81600161264590919063ffffffff16565b8073ffffffffffffffffffffffffffffffffffffffff167f6719d08c1888103bea251a4ed56406bd0c3e69723c8a1686e017e7bbe159b6f860405160405180910390a250565b60008082840190508368ffffffffffffffffff168168ffffffffffffffffff161015151561231157600080fd5b8091505092915050565b6000806123e885856040516020018083600019166000191681526020018268ffffffffffffffffff1668ffffffffffffffffff1677010000000000000000000000000000000000000000000000028152600901925050506040516020818303038152906040526040518082805190602001908083835b6020831015156123b65780518252602082019150602081019050602083039250612391565b6001836020036101000a0380198251168184511680821785525050505050509050019150506040518091039020611e94565b905060046000866000191660001916815260200190815260200160002060000160009054906101000a900473ffffffffffffffffffffffffffffffffffffffff1673ffffffffffffffffffffffffffffffffffffffff166124498285611fb7565b73ffffffffffffffffffffffffffffffffffffffff16141561246e5760019150612473565b600091505b509392505050565b60008083831115151561248d57600080fd5b82840390508091505092915050565b600073ffffffffffffffffffffffffffffffffffffffff168173ffffffffffffffffffffffffffffffffffffffff16141515156124d857600080fd5b8073ffffffffffffffffffffffffffffffffffffffff166000809054906101000a900473ffffffffffffffffffffffffffffffffffffffff1673ffffffffffffffffffffffffffffffffffffffff167f8be0079c531659141344cd1fd0a4f28419497f9722a3daafe3b4186f6b6457e060405160405180910390a3806000806101000a81548173ffffffffffffffffffffffffffffffffffffffff021916908373ffffffffffffffffffffffffffffffffffffffff16021790555050565b600073ffffffffffffffffffffffffffffffffffffffff168173ffffffffffffffffffffffffffffffffffffffff16141515156125d257600080fd5b6125dc828261219c565b15156125e757600080fd5b60008260000160008373ffffffffffffffffffffffffffffffffffffffff1673ffffffffffffffffffffffffffffffffffffffff16815260200190815260200160002060006101000a81548160ff0219169083151502179055505050565b600073ffffffffffffffffffffffffffffffffffffffff168173ffffffffffffffffffffffffffffffffffffffff161415151561268157600080fd5b61268b828261219c565b15151561269757600080fd5b60018260000160008373ffffffffffffffffffffffffffffffffffffffff1673ffffffffffffffffffffffffffffffffffffffff16815260200190815260200160002060006101000a81548160ff0219169083151502179055505050565b608060405190810160405280600073ffffffffffffffffffffffffffffffffffffffff168152602001600073ffffffffffffffffffffffffffffffffffffffff168152602001600063ffffffff168152602001600068ffffffffffffffffff16815250905600a165627a7a723058204622f47d6f87fbf110afa9823cf1f65566e2c14ad5e16e0dcd576ad1f2cd080b0029",
  "source": "pragma solidity ^0.4.24;\n\nimport \"./openZeppelin/Ownable.sol\";\nimport \"./openZeppelin/Pausable.sol\";\nimport \"./openZeppelin/SafeMath.sol\";\n\n\n/**\n * @title Channels\n * @author Nick Ward\n * @dev Uni-directional payment channels contract\n */\ncontract Channels is Ownable, Pausable {\n\n    // Libraries -- SafeMath used to perform math operations with integer\n    // overflow checks\n    using SafeMath256 for uint;\n    using SafeMath72 for uint72;\n\n\n    // ===============\n    // State Variables:\n    // ===============\n\n    // Limit max deposit to 25 ETH\n    uint public maxDeposit = 10 ** 18 * 25;\n\n    // This struct stores the data for each payment channel. uint32 and uint72\n    // are used to take advantage of struct packing, lowering gas costs of\n    // payment channels\n    struct Channel {\n        address sender;\n        address recipient;\n        // The block number in which the channel was opened. At current \n        // mining rate of ~6000 blocks/day, uint32 will overflow in the \n        // year 3976\n        uint32 openBlock;   \n        // Sender deposit. Using uint72 limits max possible deposit to ~4722 ETH\n        uint72 deposit; \n    }\n\n    // channel key => Channel\n    // channel key is keccak256(sender, recipient, openBlock). This is\n    // used to prevent various types of signature replay attacks\n    mapping (bytes32 => Channel) public channels;\n\n\n    // ===============\n    // Events:\n    // ===============\n\n    event ChannelCreated(\n        address indexed _sender,\n        address indexed _recipient,\n        uint72 deposit\n    );\n    event ChannelDepositIncreased(\n        address indexed _sender,\n        address indexed _recipient,\n        uint32 indexed _openBlock,\n        uint72 _newDeposit\n    );\n    event ChannelClosed(\n        address indexed _sender,\n        address indexed _recipient,\n        uint32 indexed _openBlock,\n        uint72 _payout\n    );\n    event MaxDepositChanged(\n        uint _newMaxDeposit\n    );\n\n\n    // ===============\n    // State Transition Functions:\n    // ===============\n\n\n    /**\n    * @dev Opens a payment channel between msg.sender and _recipient. \n    * msg.value becomes the channel deposit. Deposit must be > 0, but can\n    * be increased at a later time using increaseDeposit(). Note that\n    * attempting to open 2 channels with the same sender and recipient\n    * in the same block will cause the 2nd tx to revert.\n    * @param _recipient The address of the channel recipient \n    */\n    function openChannel(address _recipient) external whenNotPaused payable {\n        // Revert if no deposit is staked. NOTE: It's not currently possible\n        // to access revert strings in web3 or the latest stable version \n        // of truffle, but they are included throughout the contract for \n        // future uses\n        require(msg.value > 0, \"Deposit must be greater than zero.\");\n        // Revert if deposit is greater than the max deposit\n        require(msg.value <= maxDeposit, \"Deposit cannot be greater than maxDeposit.\");\n        // Revert if recipient is 0 address\n        require(_recipient != address(0), \"Recipient cannot be 0x address.\");\n        // Revert if recipient is also sender\n        require(_recipient != msg.sender, \"Recipient cannot be sender.\");\n        \n        // Store deposit as uint72\n        uint72 _deposit = uint72(msg.value);\n\n        // Revert if deposit amount overflowed (statement should always be \n        // true if maxDeposit is set correctly, so use assert() for check)\n        assert(uint(_deposit) == msg.value);\n\n        // set openBlock to current block number\n        uint32 openBlock = uint32(block.number);\n\n        // Create channel key. Key is keccak256(sender, recipient, openBlock)\n        bytes32 key = getKey(msg.sender, _recipient, openBlock);\n\n        // Revert if channel already exists\n        require(channels[key].deposit == 0, \"Cannot overwrite an existing channel\");\n\n        // Initialize the channel\n        Channel memory _channel;\n        _channel.sender = msg.sender;\n        _channel.recipient = _recipient;\n        _channel.openBlock = openBlock;\n        _channel.deposit = _deposit;\n        \n        // Add to channels mapping\n        channels[key] = _channel;\n\n        emit ChannelCreated(msg.sender, _recipient, _deposit);\n    }\n\n\n    /**\n    * @dev Allows the sender of a channel to increase the channel deposit.\n    * Can only be called by the sender of the channel. msg.sender is used\n    * as sender, msg.value is used as deposit increase amount\n    * @param _recipient Address of the recipient of the channel\n    * @param _openBlock Block number at which the channel was opened\n    */\n    function increaseDeposit(address _recipient, uint32 _openBlock) \n        external \n        whenNotPaused\n        payable \n    {\n        // Revert if deposit increase amount is zero\n        require(msg.value > 0, \"Must provide payment to increase deposit.\");\n\n        // Revert if deposit increase amount overflows deposit data type\n        uint72 depositIncrease = uint72(msg.value);\n        require(uint(depositIncrease) == msg.value, \"Message value must fit in uint72 data type.\");\n\n        // Get channel key. Key is keccak256(sender, recipient, openBlock)\n        bytes32 key = getKey(msg.sender, _recipient, _openBlock);\n\n        // Only the channel sender can increase the deposit. \n        // Check is made by the use of the key, based on the assumption \n        // that sha3 is a sufficiently collision resistant hash \n        // function. The explicit require() statement is excluded as a \n        // gas optimization.\n        // require(msg.sender == channels[key].sender);\n        \n        // Get current channel deposit\n        uint72 _deposit = channels[key].deposit;\n\n        // Revert if channel has not been opened\n        require(_deposit > 0, \"Cannot increase deposit on a channel that has not been created.\");\n        \n        // Increase the deposit\n        uint72 newDeposit = _deposit.add(depositIncrease);\n\n        // Revert if maxDeposit is exceeded\n        require(newDeposit <= maxDeposit, \"Total deposit cannot excede maxDeposit.\");\n\n        channels[key].deposit = newDeposit;\n\n        emit ChannelDepositIncreased(msg.sender, _recipient, _openBlock, newDeposit);\n    }\n\n\n    /**\n    * @dev Called by the channel recipient to close a channel. Transfers\n    * signed amount to recipient, and balance to sender\n    * @param _sender Address of the sender of the channel\n    * @param _openBlock Block number at which the channel was opened\n    * @param _amt Amount transferred to recipient by the signed message\n    * @param _sig Signature from the sender to transfer _amt to recipient\n    */\n    function closeChannel(\n        address _sender, \n        uint32 _openBlock, \n        uint72 _amt, \n        bytes _sig\n    ) \n        external whenNotPaused \n    {\n        bytes32 key = getKey(_sender, msg.sender, _openBlock); \n\n        // Only the channel recipient can close the channel\n        address _recipient = channels[key].recipient;\n        require(msg.sender == _recipient, \"Channel can only be closed by recipient.\");\n\n        uint _deposit = channels[key].deposit;\n\n        // Revert if requested transfer amount exceeds the channel deposit\n        require(_deposit >= _amt, \"_amt exceeds channel deposit.\");\n\n        // Signature must be valid\n        require(validSig(key, _amt, _sig), \"Invalid signature.\");\n\n        // Delete the channel before making transfers to get gas refund\n        // and protect against reentrancy. If transfer() fails, entire \n        // tx will revert and the channel information will not be deleted\n        delete channels[key];\n\n        // Transfer payout to channel recipient\n        _recipient.transfer(_amt);\n\n        // If balance remains, transfer to channel sender\n        if (_deposit > _amt) {\n            uint senderRefund = uint((_deposit).sub(_amt));\n            _sender.transfer(senderRefund);\n        }\n        \n        emit ChannelClosed(_sender, msg.sender, _openBlock, _amt);\n    }\n\n\n    // ===============\n    // Constant Functions:\n    // ===============\n\n\n    /**\n    * @dev Accepts a signature and the elements of the signed message, \n    * returns a bool representing the validity of the message. Signature\n    * should be keccak256(channel_key, amt_to_pay_recipient). Note that\n    * it is not currently possible to sign type-structured data, so\n    * MetaMask requires you to sign a hash and most users won't verify\n    * this hash. EIP-712 aims to fix this, so it may be possible to make\n    * the expected message much more user friendly in the near future\n    * @param _key Unique key of the channel. Used to rebuild the signed\n    * message and identify the expected public address of the signer\n    * @param _amt Amount transferred to recipient by the signed message. \n    * Note that this function does not check that _amt <= channel deposit.\n    * @param _sig The signature to validate\n    * @return True if the signer of the message matches the sender of the\n    * channel, false otherwise\n    */\n    function validSig(bytes32 _key, uint72 _amt, bytes _sig) \n        internal \n        view \n        returns (bool) \n    {\n        // Build and prefix the message\n        bytes32 message = prefix(keccak256(abi.encodePacked(_key, _amt)));\n\n        // Recover the public key that signed the message, return true\n        // if it matches the sender of the channel, false otherwise\n        if (recover(message, _sig) == channels[_key].sender) {\n            return true;\n        } else {\n            return false;\n        }\n    } \n\n\n    /**\n    * @dev Public function to verify whether a given signature can be used\n    * to close a channel. Signature should be \n    * keccak256(channel_key, amt_to_pay_recipient)\n    * @param _sender Address of the sender of the channel\n    * @param _recipient Address of the recipient of the channel\n    * @param _openBlock Block number at which the channel was opened\n    * @param _amt Amount transferred to recipient by the signed message\n    * @param _sig The signature to verify\n    * @return True if sig can be used to close the channel, false otherwise */\n    function verifySignature(\n        address _sender, \n        address _recipient, \n        uint32 _openBlock, \n        uint72 _amt, \n        bytes _sig\n    ) \n        external view returns (bool) \n    {\n        bytes32 key = getKey(_sender, _recipient, _openBlock); \n\n        // Build and prefix the message\n        bytes32 message = prefix(keccak256(abi.encodePacked(key, _amt)));\n\n        // Recover the public key that signed the message. Return true\n        // if it matches the sender of the channel and the channel deposit\n        // is large enough to cover the transfer amount, false otherwise\n        if (recover(message, _sig) == channels[key].sender && channels[key].deposit >= _amt) {\n            return true;\n        } else {\n            return false;\n        }\n    } \n\n\n    /**\n    * @dev Prefixes a given message hash to match the header used by geth's\n    * eth_sign. This is used to make signatures recognizable as Ethereum\n    * specific, preventing malicious dapps from misusing signatures\n    * @param _hash The message that was signed\n    * @return The hash of the 'header' and the original message (this is\n    * the value expected by ecrecover())\n    */\n    function prefix(bytes32 _hash) internal pure returns (bytes32) {\n        bytes memory header = \"\\x19Ethereum Signed Message:\\n32\";\n        return keccak256(abi.encodePacked(header, _hash));\n    }\n\n\n    /**\n    * @dev Returns the public key of the signer given a message hash and an \n    * elliptic curve signature (the entire signature). Splitting signature\n    * on-chain costs 544 gas (~$0.00053 USD at 5 Gwei gas price) more\n    * than accepting r, s, and v as function parameters, but significantly\n    * simplifies things for users\n    * @param _hash The message that was signed. **NOTE: message hash must \n    * be 'prefixed' with the string \"\\x19Ethereum Signed Message:\\n32\"\n    * (see prefix() function)\n    * @param _sig Signature from which to recover the signer\n    * @return The address of the signer\n    */\n    function recover(bytes32 _hash, bytes _sig) \n        internal \n        pure \n        returns (address) \n    {\n        bytes32 r;\n        bytes32 s;\n        uint8 v;\n\n        // Confirm that sig length matches expected format (concatenation \n        // of r, s, and v, 65 bytes total)\n        require(_sig.length == 65, \"Invalid signature length.\");\n\n        // Use inline assembly to split signature into r, s, and v\n        // solium-disable-next-line security/no-inline-assembly\n        assembly {\n            // r is first 32 bytes of signature. 'bytes' data type is a \n            // dynamically sized array, which are stored in memory with \n            // a 32-byte prefix before the actual data, so we want to \n            // start reading after this prefix. This line reads 32 bytes\n            // from memory, starting 32 bytes after the _sig memory pointer\n            r := mload(add(_sig, 32))\n            // s is next 32 bytes of signature. This line reads 32 bytes\n            // from memory starting 64 bytes after the _sig memory pointer\n            s := mload(add(_sig, 64))\n            // v is the last byte of the signature. This line reads 32 \n            // bytes from memory starting 96 bytes after the _sig memory \n            // pointer, then assigns the 0th byte from this result to v. \n            // We are reading past the end of the _sig bytes array in \n            // memory, but mload will pad with zeros when we overread\n            // and we then take only the first byte from the read result.\n            v := byte(0, mload(add(_sig, 96)))\n        }\n\n        // ecrecover expects recovery byte, v in range [27, 28], \n        // but could also be in range [0, 1]\n        if (v < 27) {\n            v += 27;\n        }\n\n        require(v == 27 || v == 28, \"Invalid signature recovery byte, v.\");\n\n        // Return the address of the message signer\n        return ecrecover(_hash, v, r, s);\n    }\n\n\n    /**\n    * @dev Returns the unique channel key used in the channels mapping\n    * @param _sender Address of the sender of the channel\n    * @param _recipient Address of the recipient of the channel\n    * @param _openBlock Block number at which the channel was opened\n    * @return The unique channel key\n    */\n    function getKey(\n        address _sender, \n        address _recipient, \n        uint32 _openBlock\n    ) \n        public pure returns (bytes32) \n    {\n        // Note that openBlock is hashed as a uint32\n        return keccak256(abi.encodePacked(_sender, _recipient, _openBlock));\n    }\n\n\n    /**\n    * @dev Returns the channel deposit (in Wei). Note that there is\n    * an auto-generated function, channels(key), that will return all of \n    * the channel info\n    * @param _sender Address of the sender of the channel\n    * @param _recipient Address of the recipient of the channel\n    * @param _openBlock Block number at which the channel was opened\n    * @return Channel deposit\n    */\n    function getChannelDeposit(\n        address _sender, \n        address _recipient, \n        uint32 _openBlock\n    ) \n        public view returns(uint72) \n    {\n        bytes32 key = getKey(_sender, _recipient, _openBlock);\n        return channels[key].deposit;\n    }\n \n\n    // ===============\n    // Owner Functions:\n    // ===============\n\n\n    /**\n    * @dev Allows the contract owner to change the maximum deposit amount\n    * @param _newMaxDeposit New max deposit amount. Must be > 0 and < the \n    * max value for the uint type used to store the deposit amount\n    * in the Channel struct\n    */\n    function changeMaxDeposit(uint _newMaxDeposit) public onlyOwner {\n        require(_newMaxDeposit > 0, \"Cannot set max deposit to zero.\");\n\n        // Max deposit must remain < the max storage value for uint72 \n        // to prevent integer overflow in Channel struct. This would be\n        // an absurdly expensive attack vector to exlpoit, but worth a check\n        require(_newMaxDeposit < uint(uint72(-1)), \"Max deposit must be less than the max storage value for the deposit data type.\");\n\n        // Change the max deposit\n        maxDeposit = _newMaxDeposit;\n\n        emit MaxDepositChanged(_newMaxDeposit);\n    }\n\n\n}",
  "sourcePath": "/home/nick/BlockchainProjects/saitoStuff/saitoPaymentChannels/contracts/Channels.sol",
  "compiler": {
    "name": "solc",
    "version": "0.4.24+commit.e67f0147.Emscripten.clang"
  },
  "schemaVersion": "2.0.1",
  "updatedAt": "2018-11-09T19:44:15.342Z"
}